:020000040800F2
:10000000A8190020990200084321000801200008D7
:1000100041210008C5080008E92A00080000000086
:10002000000000000000000000000000DD010008EA
:10003000C708000800000000310200087125000810
:10004000B3020008B3020008B3020008B3020008BC
:10005000B3020008B3020008B3020008B3020008AC
:10006000B3020008B3020008B3020008B30200089C
:10007000B3020008B3020008B3020008B30200088C
:10008000B3020008B3020008B3020008B30200087C
:10009000B3020008B3020008B3020008B30200086C
:1000A000B3020008B3020008B3020008B30200085C
:1000B000B3020008B3020008B3020008B30200084C
:1000C000B3020008B3020008B3020008B30200083C
:1000D000B3020008B3020008B3020008B30200082C
:1000E000B3020008B3020008B3020008B30200081C
:1000F000B3020008B3020008B3020008B30200080C
:10010000B3020008B3020008B3020008B3020008FB
:1001100055260008B3020008B3020008B302000825
:10012000B3020008B3020008B3020008B3020008DB
:10013000B302000803090008B3020008B302000874
:10014000B3020008B3020008B3020008B3020008BB
:10015000B3020008B3020008B3020008B3020008AB
:10016000B3020008B3020008B3020008B30200089B
:10017000B3020008B3020008B30200080000000048
:10018000B3020008B3020008B3020008B30200087B
:10019000B3020008B3020008B3020008B30200086B
:1001A000B3020008B3020008B3020008B30200085B
:1001B000B3020008B3020008B3020008B30200084B
:1001C000B3020008B3020008DFF80CD000F004FA14
:1001D00000480047A5580008A81900202B4B1968B3
:1001E0000868B0E8F04F80F30988BFF36F8F4FF0D5
:1001F000000080F311887047000000000648006886
:10020000006880F3088862B661B6BFF34F8FBFF312
:100210006F8F00DF00BF00BF08ED00E0DFF80C00CB
:10022000016841F470010160704700BF88ED00E093
:10023000EFF30980BFF36F8F144B1A681EF0100F95
:1002400008BF20ED108A20E9F04F106008B44FF08D
:10025000500072B680F31188BFF34F8FBFF36F8FDA
:1002600062B60AF0EBFC4FF0000080F3118808BC86
:1002700019680868B0E8F04F1EF0100F08BFB0EC26
:10028000108A80F30988BFF36F8F70470000002049
:10029000EFF3058070470000064880470648004796
:1002A000FEE7FEE7FEE7FEE7FEE7FEE7FEE7FEE726
:1002B000FEE7FEE781250008C90100080649074A54
:1002C0000868504343F23902104408604008704700
:1002D0000149086070470000AC0100206D4EC64126
:1002E00040EA01039B0703D009E008C9121F08C0B8
:1002F000042AFAD203E011F8013B00F8013B521E38
:10030000F9D27047D2B201E000F8012B491EFBD2AE
:1003100070470022F6E710B513460A460446194610
:10032000FFF7F0FF204610BD30B50446002003461D
:1003300000E05B1C934203D2E05CCD5C401BF8D034
:1003400030BD2DE9F04D81EA030404F0004B21F0AB
:10035000004514464FF0000A23F0004150EA050220
:1003600020D054EA01021DD0C5F30A570246C5F356
:100370001303C1F31300C1F30A5640F4801543F48C
:100380008013A7EB0608101BD64608F2FD3873EB66
:10039000050002D308F1010801E092185B41B8F1B1
:1003A000000F03DA00200146BDE8F08D00204FF475
:1003B0008011064684460EE0171B73EB050705D334
:1003C000121B63EB050306434CEA010C49084FEA94
:1003D000300092185B4150EA0107EDD152EA030068
:1003E00012D082EA040083EA0501084305D0101BFD
:1003F000AB4106D20122002306E000224FF0004369
:1004000002E06FF0010253101AEB06004CEB0851AA
:1004100010EB0A0041EB0B01BDE8F04D00F07FB896
:100420000EB540F2334102910021CDE900110A4698
:100430000B4600F083F803B000BDC1F30A5210B5BB
:10044000C1F3130140F2FF3341F480119A4201DA03
:10045000002010BD40F233439A42A2F2334203DC43
:10046000524200F04CF810BD904010BD30B5041E53
:1004700071F1000404DB4FF00044404264EB0101E1
:10048000141E73F1000405DB1C464FF0004352427A
:1004900063EB0403994208BF904230BD2DE9F05F41
:1004A0000546002092469B468846064681464024E3
:1004B0001BE0284641464746224600F020F85346B6
:1004C0005A46C01A914110D311461846224600F0F0
:1004D00095F82D1A67EB01084F46224601200021AE
:1004E00000F08CF817EB00094E41201EA4F1010426
:1004F000DFDC484631462A464346BDE8F09F202AC5
:1005000004DB203A21FA02F00021704721FA02F3BD
:10051000D040C2F12002914008431946704710B5FF
:10052000141E73F1000408DA401C41F10001921816
:100530005B411A4301D120F0010010BD2DE9F04DBF
:1005400092469B4611B1B1FA81F202E0B0FA80F214
:100550002032904600F052F804460F4640EA0A0066
:1005600041EA0B0153465A46084313D0114653EA59
:10057000010019D0C8F140025046FFF7C0FF054600
:100580000E4650465946424600F038F8084305D01A
:10059000012004E020463946BDE8F08D00200543E7
:1005A00046EAE0762C4337430A986305E40AA0EB59
:1005B00008000022FD0A44EA47540A3002D5002010
:1005C0000146E9E7010510196941DDE9084500190F
:1005D0006941BDE8F04DA2E7064C074D06E0E06832
:1005E00040F0010394E8070098471034AC42F6D37A
:1005F000FFF7EEFD5CBD00087CBD0008202A04DB8F
:10060000203A00FA02F1002070479140C2F1200325
:1006100020FA03F319439040704770B58C1810F816
:10062000015B15F0070301D110F8013B2A1106D137
:1006300010F8012B03E010F8016B01F8016B5B1E51
:10064000F9D12B0705D40023521E0DD401F8013B2C
:10065000FAE710F8013BCB1A921C03E013F8015B98
:1006600001F8015B521EF9D5A142D8D3002070BD1C
:1006700070B5264C86B0206840F0010020602068EC
:1006800000F001000590206840F020002060206804
:1006900001250326694600F0200005902020CDE9C1
:1006A00000051B48CDE9025600F098FE206840F096
:1006B00008002060206800F0080005901348103002
:1006C000016841F4003101600068022107220492B0
:1006D00000F40030059060208DE863000D48694605
:1006E00000F07CFE0D4800210B4C0C224FF4E1334E
:1006F0000460C0E90131C160C0E904128161C161D7
:100700000162416201F0A2FB06B070BD30380240C8
:1007100000000240000C024000440040181200207B
:100720001E4810B586B0016841F004010160006800
:1007300000F00400059019481030016841F40021D0
:10074000016000680221012200F4002005900323CB
:1007500008244FF440608DE81F001148694600F0FE
:100760003DFE114800210F4C0C224FF4E133046090
:10077000C0E90131C160C0E904128161C161016257
:10078000416201F063FB01220521342000F060FF8B
:10079000342000F052FF06B010BD00003038024097
:1007A00000080240004C0040341300203F48F0B5E0
:1007B000016887B041F001010160016801F00101A9
:1007C0000591016841F002010160016801F0020138
:1007D0000591016841F004010160016801F0040124
:1007E0000591016841F008010160016801F008010C
:1007F0000591016841F010010160016801F01001EC
:100800000591016841F02001016000680125284C34
:10081000022600F020000590CDE9006569462046DB
:10082000029600F0DBFD01222046022100F0CBFE03
:100830000024694668038DE851001E4800F0CEFD93
:100840001D4F44F2112600966946CDE90154384601
:1008500000F0C4FD00223146384600F0B4FE174EC9
:100860004AF6C02000906946CDE901543046039411
:1008700000F0B4FD00224AF68021304600F0A3FECD
:1008800001223046402100F09EFE2E030096CDE965
:100890000154039469460A4C204600F09FFD002253
:1008A0003146204600F08FFE07B0F0BD30380240E0
:1008B0000004024000080240000C02400010024008
:1008C00000140240FEE77047014800F032BA000011
:1008D0008812002038B50446006800F58050816910
:1008E00041F480118161206800F58050806900909A
:1008F000012000F0ADF82068009900F5805081617A
:1009000038BDFFF7E1BF00002DE9F041044621B1F9
:100910004FF40061C800C4E90201E0690025002825
:1009200062D028462368D4E9021C3A4F40261A6850
:1009300041EA0C0101433A4041F400701043186051
:1009400020680768012000F083F8206807602068AD
:10095000466020684668012000F07AF820684FF66B
:1009600041724660206885602068C560216888699A
:10097000104040F08000886120688669012000F006
:1009800067F8206886612068C5612068C569012014
:1009900000F05EF82068204B2049C561206800F512
:1009A000805082691A4011438161206800F58050AF
:1009B0008569012000F04CF82068194900F5805045
:1009C0008561206800F580500160206800F5805046
:1009D0000568012000F03CF8206800F580500560B3
:1009E000A069012803D009E04FF480609AE72068ED
:1009F0000C4A00F58050C1691143C16160690A4920
:100A000082880A640278D0F8010042EA0020486433
:100A1000BDE8F0810F8120FF233FDEF804002002B3
:100A20008020C102400001000080024090F8351093
:100A3000022903D08021416501207047052180F8FB
:100A400035100068016821F0010101600020704745
:100A500031B500F0BDFD044600F0BAFD0099001B61
:100A60008842F9D338BD00002DE9F047054690F8DB
:100A700045000C4601287DD002214FF0010985F880
:100A80004590002C85F8441077D094E80901E76878
:100A90001843D4E90423D5E9021648EA070840EAD6
:100AA0000800D4F82080084329681043626AD4E91A
:100AB000067C18430B68304338433B4E40EA0C0039
:100AC000A76A40EA080010433340384318430860DF
:100AD000286806680120FFF7BBFF2868066004F15C
:100AE0003401D4E90B03276C91E8061018432B68F6
:100AF00011430843D4E9116240EA0C003843304303
:100B000010435860286846680120FFF7A1FF286855
:100B10004FF6417346602968E06C88602968206D53
:100B2000C860B4F85460D4E91607216E2A683843C7
:100B300041EA064CD4E91976916940EA0C00384341
:100B40001940304308439061286886690120FFF707
:100B50007FFF28688661D4E91B012A680843D061B9
:100B60002868C4690120FFF773FF2868C46114E096
:100B700000E002E00220BDE8F0872968D5E9020321
:100B80000A68184322F490421043086028680468F9
:100B90000120FFF75DFF28680460002185F844907C
:100BA000084685F84510E6E70F8120FF2DE9F04360
:100BB00090F845400025012C0DD04FF0010980F838
:100BC0004590022644F2F45780F844605E1E4FF0D0
:100BD000004C816217E00220BDE8F083C5EBC51828
:100BE00001EB451408EB480802EB8808C4F800C084
:100BF000B542C4E9017804D204F12008C4F80C809D
:100C000000E0E1606D1C9D42E8D30368002403F519
:100C10008053D96080F8449080F845402046DBE757
:100C20002DE9F04390F8454091460022012C09D06F
:100C3000C1620126022480F845605D1E80F84440B0
:100C4000E70422E00220BDE8F08300BFC2EBC2143B
:100C500004EB440801EB421409EB880C2760C4F84C
:100C600008C0D0F81CC0BCF1000F05D1D4F800C0FA
:100C70004CF4400CC4F800C0AA4204D204F1200C89
:100C8000C4F80CC000E0E160521C9A42DED3026856
:100C9000002302F58052116180F8446080F84530ED
:100CA0001846D0E7704730B590F845100023012969
:100CB00008D0012280F84520022180F84410816A82
:100CC00000241AE0022030BD0D685B1CC5F301252D
:100CD000022D0AD00D6815F4407F09D0836B5B1C90
:100CE000012BC0E90D1313D013E08263016302E00E
:100CF000856B6D1C8563C96881620D68002D01DB01
:100D0000052BE1D380F8442080F84540012030BD18
:100D100001630B68C3F30D431B1FC363036B9B6825
:100D20000364C968816280F8442080F8454000204F
:100D300030BD70B504460068002500F580500126DE
:100D40004169490608D5204600F0F6F9206840219F
:100D500000F58050416109E04069C0070AD0204693
:100D600000F0FDFA206800F58050466184F8446088
:100D700084F845504FF48031206800F5805041617F
:100D8000206800F58050406900040CD52046FFF72C
:100D900089FF20684FF4004100F58050416184F8DC
:100DA000446084F8455070BD2DE9FC474FF00006C3
:100DB0000400B146009603D094F8440018B107E04F
:100DC0000120BDE8FC87204684F8456000F0E4F887
:100DD0006748016841F480410160006800F4804088
:100DE00001906448016821F4000101600168226AF1
:100DF00011430160206800F58050016841F0010155
:100E0000016000F0E5FB4FF4FA77054609E000BF0A
:100E100000F0DEFB401BB84203D9032084F84400F5
:100E200068E0206800F580500068C007F0D12068B5
:100E3000006920F01C0500F025FD4F4A4F4902448F
:100E40008A4202D245F0080516E04D494D4A014458
:100E5000914202D245F00C050EE04B4A4B49024448
:100E60008A4209D34A4A4B491044884202D245F08B
:100E7000040501E045F010052068056100214FF4EC
:100E80000042204600F06CFA4FF00105B0BBFF2095
:100E9000FFF7DEFD606890B300F09AFB804641F2F8
:100EA000883701216A46204600F002F900F090FBE5
:100EB000A0EB0800B84217D800984007F1D50021F0
:100EC00020464FF4805200F04BFAB8B900F080FB96
:100ED00080466A460121204600F0EAF800F078FBDF
:100EE000A0EB0800B8420BD901212046FFF70CFD0A
:100EF00084F84450032084F8456062E724E018E059
:100F000000988006E5D51F216A46204600F0D0F8FB
:100F1000D0B90098C10603D54FF40061E16000E04C
:100F2000E660400701D5A66019E04FF48040A0605C
:100F300015E0D4E90210C00840EA510082B2204610
:100F4000002100F00DFA30B101212046FFF7DCFC52
:100F500084F8445034E740F6FF70FFF779FD4946C6
:100F60002046FFF7D1FC84F84450002029E7000018
:100F7000443802400438014000D3CEFEC0E1E40012
:100F800040F1E9FD40787D0100796CFC005A620275
:100F9000001F0AFA80F0FA0230B5404C87B0206892
:100FA00040F001002060206800F0010005902068FA
:100FB00040F002002060206800F0020005902068E8
:100FC00040F004002060206800F0040005902068D4
:100FD00040F008002060206800F0080005902068BC
:100FE00040F04000206020680323022100F0400010
:100FF000059000220B2586208DE82F0028486946A1
:1010000000F0ECF9322000902648694600F0E6F93D
:101010004FF4D04000902448694600F0DFF90022E8
:1010200007213D2000F014FB3D2000F006FB1F4D82
:1010300000220821284600F0C6FA0121019108206B
:10104000029169460090284600F0C8F9012228461E
:10105000082100F0B8FA002207213D2000F0F8FA3C
:101060003D2000F0EAFA206840F00070206020681F
:1010700000F000700590206840F0806020602068DB
:1010800000F080600590206840F0006020602068DB
:1010900000F00060059007B030BD0000303802401D
:1010A000000002400008024000180240000C02400C
:1010B0002DE9F047044690F84400914682281DD05F
:1010C00082224FF6FF7084F844204FF4F8632268C0
:1010D00003EA8111258A136900EAC52003F01C0385
:1010E0001843014321F0020040F00105156100F0B2
:1010F0006FFA012706464FF4803811E00220BDE860
:10110000F08700BF00F064FA801B404506D3002042
:1011100084F8447084F845000320F0E720680569EE
:10112000E807EFD12068406981B2C9F8001084F85F
:1011300044700020E3E700000148006805F0DCBAD5
:101140007C010020F8B5044690F84500012839D00C
:10115000012584F84550022084F8440020680026C8
:10116000016841F00801016020680068009028468D
:10117000FFF76EFC2168009808602068016841F064
:10118000040101602068006800900120FFF760FC06
:101190002168009808602046FFF79CFB206800F556
:1011A0008050816941F400518161206800F58050D0
:1011B000816941F00201816184F84450002084F883
:1011C0004560F8BD0220F8BDF8B5044690F845002A
:1011D000012839D0012584F84550022084F84400C4
:1011E000206800F58050816921F4005181612068F8
:1011F00000F58050816921F002018161206800269C
:10120000016821F00401016020680068009001205D
:10121000FFF71EFC2168009808602046FFF75AFB84
:101220002068016821F008010160206800680090D2
:101230000120FFF70DFC21680098086084F84450F5
:10124000002084F84560F8BD0220F8BDF0B590F8A4
:1012500045200023012A13D0012680F84560022290
:1012600080F844204FF0000561B1C76A3A68002A4F
:101270000BDA122180F8441080F845500120F0BDAF
:101280000220F0BD80F84460F6E740F2F454A14239
:101290000BD9B1FBF4F204FB121CB1FBF4F2BCF16C
:1012A000000F00D0521C012A45D13A68C1F30C014D
:1012B00042F040523A60C26A5160C16A0A6842F024
:1012C00000420A60C16AC968C16236E0D7F800C04E
:1012D0002CF0405CC7F800C033B9C76AD7F800C02B
:1012E0004CF0805CC7F800C0D0F82CC0571EBB4241
:1012F000CCF8044014D1C76AC2F1010ED7F800C07F
:10130000CEEBCE1E4CF0005CC7F800C00EEB4E0ECC
:10131000D0F82CC001EB8E07C7F30C07CCF8047093
:10132000C76AD7F800C04CF0004CC7F800C0C76AC5
:101330005B1CFF68C7629342C8D3016801F5805106
:101340004A69520705D504224A61016801F58051B6
:101350004D6080F8446080F845500020F0BD704733
:101360002DE9F041044690F8440042281ED0422066
:101370004FF6FF7384F8440096B220684FF4F86784
:10138000258A07EA81110269466103EAC5202368BC
:1013900002F01C021043014341F003051D6100F0FF
:1013A00017F9012706464FF4803811E00220BDE806
:1013B000F08100BF00F00CF9801B404506D30020EF
:1013C00084F8447084F845000320F0E7206805693C
:1013D000E807EFD184F84470E9E700002DE9F84F01
:1013E000DFF89CE100224FF001084FF0030B4FF0B3
:1013F0000F0A00BF0B6808FA02F42340A34271D120
:101400004D68022D01D0122D0FD1D5080E69570756
:1014100000EB8505A9462D6AFF0E0AFA07FCBE40BF
:1014200025EA0C052E43C9F820600F79550006689F
:101430000BFA05FC07F0030726EA0C06AF4037431A
:1014400007604E68012E05D0022E03D0112E01D068
:10145000122E0ED18668CF6826EA0C06AF403743BD
:10146000876046680F79A643C7F300179740374354
:101470004760C4688E6824EA0C04AE402643C66008
:101480004C68E40075D53F4C256845F480452560DF
:10149000246822F00306950704F4804400943A4C33
:1014A0002D0F2644D6F80848DFF8E0C00AFA05F701
:1014B000604524EA070401D100272EE0344FB842EA
:1014C00001D1012729E0334FB84201D1022724E09E
:1014D000314FB84201D103271FE0304FB84202D14B
:1014E00004271AE045E02E4FB84201D1052714E049
:1014F0002C4FB84201D106270FE02B4FB84201D143
:1015000007270AE0294FB84201D1082705E0284FF4
:10151000B84201D1092700E00A27AF4027437546AA
:10152000C6F808784E68DEF80040F60324EA0304A3
:1015300000D51C43124E2C60361D4D683468AD0337
:1015400024EA030400D51C430D4F346008374D686E
:101550003C68ED0224EA030400D51C43084D3C60BE
:101560000C354E682C68B60224EA030400D51C43EF
:101570002C60521C102AFFF43DAFBDE8F88F00002C
:10158000003C01404438024000300140000002406D
:101590000004024000080240000C0240001002401B
:1015A0000014024000180240001C024000200240CB
:1015B000002402400069084000D0012070474269C1
:1015C0004A40426170470AB1816170470904FBE7F4
:1015D0000148006870470000580100200248016877
:1015E000491C01607047000058010020074810B5F1
:1015F000016841F400710160032000F049F80F20F8
:1016000000F006F800F018F8002010BD003C024081
:10161000084910B504464FF47A700968B1FBF0F040
:1016200000F044FB00222146501E00F011F800207B
:1016300010BD0000540100207047410900F01F0256
:101640008900012001F1E0219040C1F800017047BC
:101650000E4BF0B41B680D46C3F30223C3F107061B
:10166000042E00D90426191D072901D2002300E009
:10167000DB1E012404FA06F19C40491E2940641E29
:10168000994014402143F0BC00F05CBD0CED00E03B
:10169000064900F0070210B54FF6FF040868044B36
:1016A000204040EA02201843086010BD0CED00E025
:1016B0000000FA051848F8B5016841F08051016052
:1016C0000068164C00F080500090206840F4803094
:1016D0002060FFF77DFF4FF47A76054605E000BFF6
:1016E000FFF776FF401BB0420FD86068C003F7D504
:1016F000206840F400302060FFF76AFF054606E0EE
:10170000FFF766FF401BB04201D90320F8BD6068B7
:101710008003F5D50020F8BD40380240007000403D
:101720002DE9F047DFF84C8105460E46D8F8000059
:1017300000F00F00B0420CD2D8F8001021F00F01D9
:101740003143C8F80010D8F8000000F00F00B04294
:1017500065D12878484C800705D5A968206820F015
:10176000F000084320602878C00747D042496868E5
:101770000839012816D00968022816D089070029DF
:101780004DDA216821F0030101432160FFF720FFBA
:101790006968074641F2883001290FD00229814645
:1017A00019D027E009688903E9E78901E7E700BF65
:1017B000FFF70EFFC11B494501D918E0814620689B
:1017C000C0F381000128F3D118E000BFFFF700FF4C
:1017D000C11B49450BD82068C0F381000228F5D110
:1017E0000CE000BFFFF7F4FEC11B494502D90320FE
:1017F000BDE8F087206810F00C0FF3D1D8F8001086
:10180000404601F00F01B1420BD9016821F00F01F0
:1018100031430160006800F00F00B04201D00120A8
:10182000E6E72878400705D5E968206820F4E0500D
:10183000084320602878000706D52869216821F42C
:10184000604141EAC000206000F052F82168F022B7
:1018500092FAA2F201F0F001B2FA82F2D140074A04
:10186000515CC840064908600F20FFF7D1FE0020F8
:10187000BEE70000003C0240083802402CBB0008D4
:101880005401002001480068704700005401002006
:1018900008484FF4E052016892FAA2F2064801F4B7
:1018A000E051B2FA82F2D140044A0068515CC8406B
:1018B0007047000008380240540100203CBB00087B
:1018C00008484FF46042016892FAA2F2064801F417
:1018D0006041B2FA82F2D140044A0068515CC840CB
:1018E0007047000008380240540100203CBB00084B
:1018F0001D4930B51D48096811F00C011AD043107C
:10190000042916D0082915D1174947F6C072091FB6
:101910000C680D6804F03F046D020CD50D68B3FB34
:10192000F4F092FAA2F31540B3FA83F2D54068437B
:101930000BE0184630BD0B68B0FBF4F092FAA2F44D
:101940001340B4FA84F2D340584309684FF440324C
:1019500092FAA2F201F44031B2FA82F2D140491C6B
:101960004900B0FBF1F030BD083802400024F4001B
:101970002DE9F84FCB4F05460078A7F10408A8F1F0
:101980000404C0074AD03868C0F38100012808D099
:101990003868C0F3810002280AD1D8F8000040025C
:1019A00006D52068800339D5686800287AD035E0EC
:1019B0006868B0F5803F0BD010B1B0F5A02F11D002
:1019C000206820F480302060206820F4802002E02D
:1019D000206840F480302060686890B1FFF7F8FD1F
:1019E00006460AE0206840F480202060F0E700BF4F
:1019F000FFF7EEFD801B642875D820688003F7D5BB
:101A00000CE0FFF7E5FD064605E000BFFFF7E0FD4F
:101A1000801B6428F0D820688003F7D428788007DA
:101A200050D538684FF0F80910F00C0F08D038681E
:101A3000C0F38100022815D1D8F80000400211D46B
:101A40002068800702D5E86801282BD1296922681F
:101A500099FAA9F0B0FA80F0814022F0F80008432A
:101A600020602FE0E868002820681CD040F00100CA
:101A70002060FFF7ADFD064605E000BFFFF7A8FDBB
:101A8000801B0228B8D820688007F7D5286922680B
:101A900099FAA9F1B1FA81F1884022F0F8010143E5
:101AA00021600FE0FBE020F001002060FFF790FDD7
:101AB000064604E0FFF78CFD801B022813D820683F
:101AC0008007F7D42878000729D5764869696C30F3
:101AD00000298146016811D041F001010160FFF742
:101AE00077FD064605E082E0FFF772FD801B0228C5
:101AF0007DD8D9F800008007F6D510E021F001016B
:101B00000160FFF765FD064605E000BFFFF760FDD9
:101B1000801B02286BD8D9F800008007F6D42878FB
:101B2000400756D55F483830016841F08051016068
:101B30000068DFF8749100F080500090D9F8001030
:101B400041F48071C9F80010FFF742FD064604E039
:101B5000FFF73EFD801B642849D8D9F80000C00576
:101B6000F6D5504EA868683601280AD008B1052875
:101B700013D0306820F001003060306820F004009D
:101B800002E0306840F001003060A86841F2883A15
:101B900090B1FFF71DFD81460AE0306840F0040077
:101BA0003060EEE7FFF714FDA0EB090151456ED858
:101BB00030688007F6D50CE0FFF70AFD814605E0A6
:101BC000FFF706FDA0EB0901514560D8306880079A
:101BD000F6D4A869F0B33968C1F3810102295ED057
:101BE0000228206820F08070206005D000E04EE0E0
:101BF000FFF7EEFC05464DE0FFF7EAFC064604E081
:101C0000FFF7E6FC801B022841D820688001F7D44A
:101C100047F6C0704FF0FF36D5E9091390FAA0F2ED
:101C20004FF44037B2FA82F297FAA7F706EB530364
:101C30009140D5E907064FF0706CEA6AB7FA87F76A
:101C40009CFAACF5BB4019433043B5FA85F3084321
:101C50009A4000E021E0104340F00050C8F8000036
:101C6000206840F080702060FFF7B2FC054604E079
:101C7000FFF7AEFC401B022809D820688001F7D589
:101C80000BE000BFFFF7A4FC401B022802D9032091
:101C9000BDE8F88F20688001F4D40020F8E7012027
:101CA000F6E700000838024000700040401EB0F126
:101CB000807F10B501D3012010BD4FF0E02460619A
:101CC0000F21601700F03EFA0020A061072121617A
:101CD00010BD704770B501680446C8690A688B6812
:101CE00010F00F0F5CD003F0010502F490762E4344
:101CF00069D0C60707D0D60505D501260E62E16E6C
:101D000041F00101E166810708D5D90706D02668B0
:101D100002213162E16E41F00401E166410708D51C
:101D2000D90706D0236804211962E16E41F002014F
:101D3000E16601070AD502F02001294306D0236895
:101D400008211962E16E41F00801E166E16E0029A7
:101D500032D0800604D5900602D5204600F02AFD38
:101D6000E06E000703D420688068400625D5204631
:101D700000F012FD2068816849061AD5816821F0BB
:101D800040018160606EA0B12F490165606EFEF771
:101D90004DFE002810D0606E016DBDE87040084710
:101DA000830610D593060ED52046BDE8704000F09E
:101DB00001BD2046FFF78DFF70BD2046FFF789FF6C
:101DC0000020E06670BD03062FD513062DD594F8CC
:101DD00069002128F6D1B4F8520020B1A068B0F50E
:101DE000805F0AD00BE0086820F08000086020685F
:101DF000016841F04001016070BD206960B1E06C94
:101E0000411CE16421680078C1F82800B4F8520050
:101E1000401EA4F8520070BDE06C0088C0F30800BA
:101E20008862E06C801CE064F0E74006F3D5500661
:101E3000F1D50B682022204623F040030B6084F884
:101E4000692000F0DCF870BD8527000810B504009B
:101E500003D094F8690010B107E0012010BD002004
:101E600084F86800204600F026F8242084F86900F1
:101E70002068016821F001010160204600F0D6FCD5
:101E80000128EBD0606A10B1204600F0E9FB206821
:101E9000416821F4904141602068816821F02A0165
:101EA00081602068016841F0010101602046BDE8C1
:101EB000104000F039BC704710B590F86A30202B04
:101EC0003FD1C9B1C2B190F86830012B39D08368D5
:101ED0000124416580F86840A0F85820A0F85A20F5
:101EE000B3F5805F4FF0FF0108D04FF07F0253B190
:101EF000B3F1805F0CD011E0012010BD026922B95E
:101F000040F2FF1101E0036933B9A0F85C1005E06D
:101F1000016909B13F21F8E7A0F85C2000212222E5
:101F2000C16680F86A2080F8681001688A6842F00B
:101F300001028A600068016841F49071016000202C
:101F400010BD022010BD70472DE9F843044690F8FB
:101F500069001F4616460D4620284ED1C5B1BEB1B8
:101F600094F86800012848D0012284F868202121D3
:101F70004FF00008C4F86C8084F869105034FFF703
:101F800027FB268081466680503C4FF4805619E03E
:101F90000120BDE8F88300BFB4F85200401EA4F849
:101FA000520000224B4680212046009700F06AFD37
:101FB000A0B9A068B04201D1206988B115F8010B21
:101FC00021688862B4F852000028E5D100224B460F
:101FD00040212046009700F055FD38B10320D8E796
:101FE00035F8020B2168C0F30800EAE7202184F8E5
:101FF0006910002084F86880CBE70220C9E77047A9
:10200000FEE7000070B5404C0928404D0E467AD2DC
:10201000DFE800F07950633D1879792B0500012243
:10202000204695032946FFF7CEFA304604F094F98E
:10203000002229462046FFF7C6FA304604F08CF904
:1020400033A05CE001222846D4022146FFF7BBFA08
:10205000304604F081F9002221462846FFF7B3FA02
:10206000304604F079F92CA049E0012220461146BF
:10207000FFF7A9FA304604F06FF90022204601214B
:10208000FFF7A1FA304604F067F925A037E00122F6
:10209000284654032146FFF796FA304604F05CF9CF
:1020A000002221462846FFF78EFA304604F054F904
:1020B0001DA024E00122204655022946FFF783FA9D
:1020C000304604F049F9002229462046FFF77BFA02
:1020D000304604F041F916A011E001222846D4034D
:1020E0002146FFF770FA304604F036F90022214607
:1020F0002846FFF768FA304604F02EF90EA0BDE836
:10210000704000F0F3BC70BD000C024000100240B3
:10211000BCD3CBD90D0A0000BCF5CBD90D0A000009
:10212000CCE1B6B80D0A0000BBBAC6C20D0A000069
:10213000C6F4B6AF0D0A0000CDA3D6B90D0A000053
:10214000FEE77047090700284FEA116106DA00F040
:102150000F0000F1E02080F8141D704700F1E0202E
:1021600080F800147047000030B58BB0154B164D49
:102170000020164A6FF07F4415498DE83F0015484E
:1021800005AB04AA03A904F021F8124804F068F88A
:10219000104890F8330040070E4802D504F0CEF8FE
:1021A00001E004F063F80C490A4804F093F80B4985
:1021B000142206A8FEF794F8064906A804F004FBCA
:1021C0000BB030BDC0A80077C0A80001759E000804
:1021D00061410008EC1200202D42000898BB000865
:1021E0000EB5DFF808A24FF49678814C4FF0000945
:1021F0000A226846216904F0F3F8A268DDE90010BC
:1022000013076FD5D30444D5202941D1054679A0C1
:1022100000F06CFCE88A012805D0288B012816D034
:1022200002281ED030E079A000F060FC0220414678
:10223000FFF7E8FEA4F80090A4F802902946A5F85C
:102240001690C4F80890206904F0C3F81CE02088B8
:10225000642819D208204146FFF7D4FE2088401C8C
:102260000FE02088FEF7DCF89FED6E1B53EC112B7E
:10227000FEF7FCF808D204204146FFF7C3FE208891
:10228000401E2080A5F818902946206904F0A1F886
:10229000A8E0900427D565A000F028FC2088C6B2ED
:1022A00011E00420FFF7AEFE218865A0891F9AFB8C
:1022B000F1F7A7F51677394600F018FC384604F018
:1022C0004BF8761EF6B24146062EEAD80220FFF7FA
:1022D00099FE0421A4F80090A4F80290A5F81690A5
:1022E000A1607FE020E021885DA000F0FFFB0626D2
:1022F00012E008204146FFF785FE218850A0891F83
:102300009AFBF1F7A7F51677394600F0EFFB384650
:1023100004F022F8761CF6B220888642E9D3A06841
:1023200040F48050A0605DE020295BD10546C08A62
:10233000012811D029894FF6FF702180E988C1EB6F
:10234000011100EA8101A1804BA000F0CFFB2088A1
:10235000642811D9642013E02CA000F0C7FB0220F0
:102360004146FFF74FFEA4F80090A4F80290A5F8AC
:102370001690C4F8089087E72088062801D2062026
:102380002080218842A000F0B1FBE8896188884262
:1023900028D9608060880F2801D90F2002E060886A
:1023A00008B901206080012047464146FFF72AFE18
:1023B00041F2883003F0D0FF002605E007203946BF
:1023C000FFF720FE761CF6B260888642F6D3A0683E
:1023D000294640F00800A060206903F0FAFF32A00F
:1023E00000F084FB322003F0B7FF01E720BF0200BA
:1023F0005C010020C7B0336D696EBAF3BDF8C8A5A3
:10240000CEC8CCACB1EAD6BE0D0A0000CAD5B5BD67
:10241000B7FECEF1C6F7CDA3D6B9CFFBCFA2BAF3A4
:102420000D0A0000333333333333E33FCAD5B5BD30
:10243000CEC8CCACBDE1CAF8B1EAD6BE0D0A0000E8
:1024400053706565644368616E676554696D65497D
:102450006E74657276616C203D2025640D0A000063
:10246000322E63757272656E745F53504545442019
:102470003D2025640D0A000073657474696E675F02
:1024800073706F727474696D653D25640D0A000088
:10249000312E63757272656E745F53504545443DCD
:1024A00025640D0A00000000D6C3CEBB4370785FE0
:1024B000526561647932466C61670D0A0000000064
:1024C0001CB50C4D00240C4805226946FFF7F4FCAE
:1024D0000028F8D19DF80000C006F4D5601C052C3A
:1024E000C4B2F0D19DF80100002400F07F002880E4
:1024F000E9E70000800100203413002030B58BB0E4
:10250000FEF7B6F8FEF752F905F0C6F900F006FD41
:1025100000F098FC144C0020144DA060D5E9060191
:10252000CDE9050109A80790002105A803F026FFC1
:102530002061002228680121089008A804F066F9AB
:102540004FF47A71606104F073F91422684605F162
:102550002401FDF7C5FE0021684604F035F900208E
:1025600004F04EF90BB030BD5C01002044BB000804
:1025700010B504F01FF9BDE81040FFF72FB80000B8
:10258000104A30B51048146800210F4B44F4700411
:102590001460083305680D4A0D4C45F001050560CF
:1025A00019600368051D1340074A03600C322C6054
:1025B0000568E305034C25F480250560803C116027
:1025C000236030BD88ED00E000380240FFFFF6FEDA
:1025D0001030002410B5104CA068C1041AD5E16871
:1025E000491CE160A28891420ED120F48050A06085
:1025F0000AA000F07BFAA06840F40050A0600CA094
:1026000000F074FA0020E060E1680EA0BDE8104020
:1026100000F06CBA10BD00005C010020C7E5B3FDFE
:10262000BDF8C8A5CEC8CCACB1EAD6BE0D0A000034
:10263000C7E5B3FDCEC8CCACBDE1CAF8B1EAD6BEA1
:102640000D0A00005469636B3173436F6E3D25645E
:102650000D0A00000148FFF73DBB000034130020C5
:1026600090F82410C90706D00168836A4A6822F4EA
:1026700000321A434A6090F82410890706D5016891
:10268000C36A4A6822F480321A434A6090F82410E0
:10269000490706D50168036B4A6822F480221A4371
:1026A0004A6090F82410090706D50168436B4A6810
:1026B00022F400421A434A6090F82410C90606D555
:1026C0000168836B8A6822F480521A438A6090F80A
:1026D0002410890606D50168C36B8A6822F400526B
:1026E0001A438A6090F82410490611D50168036CDA
:1026F0004A6822F480121A434A60016CB1F5801FC7
:1027000006D10168436C4A6822F4C0021A434A6049
:1027100090F82410090606D50168826C486820F4F8
:102720000020104348607047F8B500260446C6668E
:10273000FEF74EFF054620686FF07E4700680007F1
:1027400008D500222B464FF400112046009700F0D8
:1027500099F960B92068006840070AD500222B4625
:102760004FF480012046009700F08CF908B1032057
:10277000F8BD202084F8690084F8686084F86A0055
:102780000020F8BD10B5806B0021A0F85A10A0F809
:102790005210FFF79EFA10BD016820220B6823F447
:1027A00090730B6001688B6823F001038B6080F8E5
:1027B0006A20704710B590F86A10B0F85C202229A2
:1027C000016805D0886940F008008861022010BDCA
:1027D0008368B3F5805F01D1036973B14B6A416DC2
:1027E00013404A1C42650B70B0F85A10491E090488
:1027F000090CA0F85A1008D016E04B6A416D13403E
:102800000B80416D891C4165EEE7016820220B6851
:1028100023F490730B6001688B6823F001038B60D5
:1028200080F86A20FFF78FFB002010BD2DE9F047EC
:1028300004468068874B884F2668D4E90415E2690E
:102840000843D6F800C0102115430022284315463E
:102850000CEA030C814B4CEA000CC6F800C04FF4A4
:1028600000492068D4F80CC0466826F4405646EA71
:102870000C0646602668D4F82080A069D6F808C007
:1028800040EA08002CF4306C4CEA000CC6F808C092
:102890002068B8420AD11B6813F0030352D0012B01
:1028A0007AD0022B76D0032B79D177E06C4EB042F0
:1028B0000AD11B6813F00C036AD0042B6CD0082BD0
:1028C00068D00C2B6BD169E0664EB0420AD11B6810
:1028D00013F030035CD0102B5ED0202B5AD0302B5D
:1028E0005DD15BE0604EB0420AD11B6813F0C003BB
:1028F0004ED0402B50D0802B4CD0C02B4FD14DE030
:102900005A4EB0420DD11B6813F4407340D0B3F55A
:10291000807F41D0B3F5007F3CD0B3F5407F3ED1FE
:102920003CE0534EB0420FD11B6813F4406309D012
:10293000B3F5806F30D0B3F5006F2BD0B3F5406F97
:102940002DD12BE001212AE04A4EB0420DD11B6867
:1029500013F440531CD0B3F5805F1DD0B3F5005F76
:1029600018D0B3F5405F1AD118E0434EB04216D1EB
:102970001B6813F440430BD0B3F5804F0CD04B458C
:1029800008D0B3F5404F0AD108E005E002E0FFE7C8
:10299000002104E0022102E0042100E00821E669B0
:1029A0004E452AD109291FD2DFE801F00508141E7F
:1029B000171E1E1E1A00FEF76BFF01E0FEF780FFD8
:1029C0000146D4F80400490001EB5001B1FBF0F0DE
:1029D00082B20AE029496068F6E7FEF789FFEFE76F
:1029E00060684FF48031EFE70125216822F00F0085
:1029F000C2F342021043C86028E0092925D2DFE86B
:102A000001F005080B24102424241C00FEF740FFCD
:102A100009E0FEF755FF06E06168194A02EB510232
:102A20000EE0FEF765FF0146D4E9002001EB5001FE
:102A3000B1FBF0F080B2D06008E0616809EB5102B0
:102A4000B2FBF1F189B2C16000E001252846BDE882
:102A5000F0870000F369FFEF00100140903802405A
:102A60000044004000480040004C0040005000403E
:102A70000014014000780040007C00400048E8015C
:102A80000024F4002DE9F041984617460E4604460E
:102A9000069D1DE0681C1BD02DB1FEF799FDA0EB33
:102AA0000800A84214D32168202000220B6823F4D8
:102AB000D0730B6021688B6823F001038B6084F86E
:102AC000690084F86A00032084F86820BDE8F0817A
:102AD0002068C06936EA000004D00020B842D9D08E
:102AE0000020F3E70120F9E7FEE700000FB4054BF3
:102AF00010B503A9044A029800F01CF810BC5DF858
:102B000014FB0000E5430008B401002000487047B2
:102B1000B001002002E008C8121F08C1002AFAD143
:102B200070477047002001E001C1121F002AFBD14D
:102B3000704700002DE9FF4F8DB09B460F460446BD
:102B4000002606E025280BD05A460F999047641CB2
:102B5000761C20780028F5D111B03046BDE8F08F02
:102B60000025A8460122984900E0054314F8013FDA
:102B7000203B02FA03F00842F7D120782E2817D123
:102B800014F8010F45F004052A280ED06FF02F022B
:102B90002078A0F1300109290AD808EB880102EB5E
:102BA000410100EB0108641CF2E757F8048B641C38
:102BB00020786C280DD004DC4C2812D06A2811D162
:102BC00004E074280DD07A280CD10AE045F40015F1
:102BD00007E0617845F48015814202D1641C05F557
:102BE0008015641C2278692A45D008DC002AB3D0FD
:102BF000582A69D0632A10D0642A08D13BE0702A91
:102C000067D0732A13D0752A5CD0782A5CD010461E
:102C10005A460F999047761CD3E017F8040B8DF8AD
:102C2000000000208DF80100E946012003E057F87C
:102C3000049B4FF0FF3069074FF0000501D40AE014
:102C40006D1C45450DDA8542FADB19F8051000299F
:102C5000F6D106E06D1C8542FCDB19F80510002951
:102C6000F8D12E4404E019F8010B5A460F99904709
:102C70006D1EF8D2A5E00A200021CDE90801C5F3B8
:102C8000025002280DD001CFC117031E71F10003BD
:102C90000DDA4FF0000CD0EB0C006CEB01012D2392
:102CA00008E0FF1D27F00707F7E80201EDE72B0515
:102CB00004D52B238DF8283001233BE0EB0739D0D6
:102CC0002023F7E70A2000E010200021CDE90801C9
:102CD00007E01020002145F00405CDE908014FF080
:102CE0000808C5F3025002280FD001CF00214FF091
:102CF000000A2B071FD5702A0DD0DDE908C38CF020
:102D0000100C5CEA030C0CD015E0FF1D27F0070740
:102D1000F7E80201EBE740228DF828204FF0010A86
:102D20000BE050EA010306D030238DF828308DF8EF
:102D3000292002239A46582A04D024A20DF1200902
:102D40000B9209E026A2F9E7DDE90823FDF7A6FBCF
:102D50000B9B9B5C09F8013D50EA0102F4D1ADEBFD
:102D6000090020300890680701D44FF00108089945
:102D7000884502DDA8EB010000E000208046002528
:102D800006E00AA85A46405D0F9990476D1C761CD4
:102D90005545F6DB04E030205A460F999047761CE3
:102DA000B8F10001A8F10108F5DC05E019F8010B04
:102DB0005A460F999047761C0899481E089000299A
:102DC000F4DC641CC5E60000092801003031323310
:102DD0003435363738396162636465660000000057
:102DE0003031323334353637383941424344454641
:102DF0000000000070B5124C0546002000EB800278
:102E000054F822202AB1401C0428F7DB4FF0FF3091
:102E100070BD00EB8006002304EB860244F82650C8
:102E200001245360138153812D78B4EB151F00D119
:102E300001B101219181D3811374537470BD0000DD
:102E4000C010002000B585B0054914226846FDF782
:102E500047FA0021684603F0B7FC05B000BD00004A
:102E6000ACBB00084FF47A74204603F075FAFBE718
:102E700010B501F0BBF8BDE81040034900224FF443
:102E80007A7004F001BE0000712E00082DE9F043B5
:102E9000194985B00646D1E90001CDE901010021BB
:102EA00001A803F015FB154C062100224FF47A739C
:102EB000A06014A00091124904F0C8FD03AFA04621
:102EC0004FF0FF393068082203A902F0CEFA05005E
:102ED0000FD400240AE0395D4A46D8F8080003F010
:102EE00049FB10B109A0FFF701FE641CAC42E9DA0E
:102EF000F1E705B0BDE8F08390BB00088401002035
:102F0000699F0008554E5041434B0000CFFBCFA2B4
:102F1000C8EBB6D3B4EDCEF30A000000002110B523
:102F200086B0084606F088FFFFF71EF90622012149
:102F3000022002F045FC184C0028206016DB02201D
:102F40008DF8050015A001F074FD029042F2B52045
:102F500001F01EFFADF806001022206801A901F063
:102F6000DBFE002804DA206801F0A8FE06B010BDE0
:102F70000420094A4FF4FA740B49234600900BA031
:102F800004F064FD0520044A0A49234600900AA083
:102F900004F05CFDEAE70000840100203139322EA4
:102FA0003136382E302E3700C12F0008434C4945AA
:102FB0004E5400008D2E0008524541440000000090
:102FC0000EB50025044640F6B83003F0C5F9206878
:102FD00004F0D2FBDFF85C804FF40057DFF8589024
:102FE0004FF47A7BDFF854A0154E39464046FEF781
:102FF000E1FAA8B1012248464021FEF7E4FA206830
:10300000012104F06FFB20215046FEF7D8FA7168C9
:103010000A22684603F0E4F96D1CE80702D004E0D8
:103020000022E8E7206804F079FA584603F094F9A2
:10303000DBE70000000802400010024000000240F0
:103040008401002000280BD0426A002A08D0137B9C
:10305000082B05D10968D26A914201D100F078B9F4
:1030600070472DE9FC41050064D06C6A002C61D0EA
:10307000A16B00233C274FF00102481C4FF6FF7064
:103080004FF48036A3840AD01E31B1FBF7F1B14270
:1030900000D301460904090CE18400D1E284E16B0C
:1030A000B1F1FF3F0CD01E31B1FBF7F1B14200D3BB
:1030B00001460904090CA18300D1A283A18B2184BC
:1030C000216CB1F1FF3F0CD01E31B1FBF7F1B142E1
:1030D00000D301460904090CE18300D1E283E18BAE
:1030E0006184A28BE18B8A4201D301B1A383A17BCE
:1030F00009B1206B09E094F82C107F2901D8FF203A
:1031000003E0C02901D36FF07F400090606B019015
:1031100028B9E06A0099084040F08070019001AB46
:103120006A4604F12C01284603F08AF80A21204659
:1031300000F0FEFBBDE8FC8170B5446A082105463D
:10314000204600F0F5FB0022284604F12C0100F097
:1031500061FE607BFF2801D2401C60734FF4FA705F
:1031600040F2E731B1FBF0F0608370BD2A4870B5E2
:1031700004684EE0606AA8B3017B99B3C18C69B161
:10318000818CC28C491C89B28184914206D120462F
:1031900000F0BEFA204600F029F939E0418C19B15F
:1031A0004A1E4284012906D0018CD9B14A1E0284EC
:1031B000012918D02CE0656A287B012805D00A284F
:1031C00003D0052801D0042822D1204600F008FAB7
:1031D000616AA88CCA8C101A022819DB00EBD07027
:1031E0004008488414E0656A287B012803D00A2837
:1031F00001D005280CD1204600F0DCFA616AA88CC9
:10320000CA8B101A022803DB00EBD0704008088438
:103210002468002CAED170BDE00000202DE9F04103
:10322000070016460C460FD094B100224FF49A7155
:10323000104603F07CFB206168B1032E12D0607B46
:10324000414D58B168680CE06FF00E00BDE8F081A8
:103250006FF00500FAE74FF0FF30F7E7FDF72EF8C3
:10326000686020600120216900254968616108705B
:1032700061694870616997F82C0088706069C57051
:10328000206801F083FD6169082E4860606905814E
:10329000606945816069C5600AD0042E08D0072E98
:1032A00006D0032E07D1207B052801D0042802D1A7
:1032B00061697868C860002061690D6161694D616C
:1032C00061698D6197F82C10814205D9062803D2D7
:1032D000391891F82D1000E00021636900F11C02FB
:1032E00000F1010C1FFA8CF010289954EAD3002049
:1032F000636900F12C02411C88B240289D54F7D329
:103300000020636900F16C02411C88B280289D5442
:10331000F7D3626900200D49C2F8EC10258300F153
:10332000F00365690146421C90B24428E954F6D383
:1033300001222046352100F0EFF83146204600F00A
:10334000FBF8002082E700004801002063825363FD
:103350007CB5446A0C210646204600F0E9FA0422B6
:1033600021463046FFF75AFF050020D104222046AF
:10337000322100F0D1F8E06A02F073F801462046ED
:1033800000F0E3F8204600F012F9218B2069F031BB
:1033900089B203F056FC0D4843230D4ACDE9006085
:1033A0002169606807F024F9204600F013F8607B7B
:1033B000FF2801D2401C60734FF4FA7142F60310EB
:1033C000B0FBF1F0608328467CBD000024BB000800
:1033D00028BB000810B5040006D0206908B103F02E
:1033E000D5FB00202061606110BD00002DE9FC418B
:1033F000064600200621746AE062204600F098FA32
:10340000012221463046FFF709FF07002ED1022294
:103410002046392100F080F8718D204600F0B6F882
:1034200004222046372100F077F8DFF87C80002561
:10343000204618F8051000F07FF86D1CEDB2042D41
:10344000F6D3204600F0B3F8218B2069F03189B221
:1034500003F0F7FB15484323154ACDE900602169C5
:10346000606807F0C5F82046FFF7B4FF607BFF28CF
:1034700001D2401C6073C0B2062802D201218140F3
:1034800000E03C214FF6FF7001EB4102C2EBC1129C
:103490004FF4FA7100EAC20000F2F310B0FBF1F051
:1034A00060833846BDE8FC814801002024BB000849
:1034B00028BB00080B4870B5002504680EE0606A60
:1034C00058B1418B012903D9A1F10101418304E0E5
:1034D00003D14583204600F03FFA2468002CEED14A
:1034E00070BD0000E0000020416A002913D00B7B72
:1034F0000022042B0CD004DC002B0CD0032B04D1B5
:1035000006E0052B04D00A2B02D04A73FFF76EBFEA
:103510004A7300F0ABB8704730B5038B45695C1C4B
:1035200004832B4483F8F010018B44694B1C038304
:10353000214481F8F02030BD10B5028B4469531C42
:103540000383224482F8F01010BDF0B5028B0D0EFB
:1035500046690C0C571C078332440B0A82F8F05062
:10356000028B4669551C0583324482F8F040028B79
:103570004569541C04832A4482F8F030028B446964
:10358000531C0383224482F8F010F0BD30B5028B47
:103590000D0A4469531C0383224482F8F050028BC5
:1035A0004469531C0383224482F8F01030BD30B5C7
:1035B000002813D0028BFF244569002311462A44BA
:1035C000491C018382F8F04005E044694A1C0283EB
:1035D000214481F8F030018B4429F6D330BD00003E
:1035E000F8B5446A04210546204600F0A1F90322FB
:1035F00021462846FFF712FE06001BD10222204674
:103600003921FFF789FF698D2046FFF7BFFF20466C
:10361000FFF7CDFF218B2069F03189B203F011FB58
:1036200000954323104A2169606806F0CBFF2046CD
:10363000FFF7D0FE607BFF2801D2401C6073C0B250
:103640000A2804D24FF47A7110FB01F001E042F233
:10365000107080B24FF4FA7100F2F310B0FBF1F089
:1036600060833046F8BD000028BB0008F8B5446A06
:1036700003210646204600F05BF90322214630462E
:10368000FFF7CCFD050028D1022220463921FFF7A3
:1036900043FF4FF410712046FFF778FF04222046C5
:1036A0003221FFF739FFE06A01F0DBFE01462046D8
:1036B000FFF74BFF2046FFF77AFF218B2069F0319F
:1036C00089B203F0BEFA00964323104A216960686C
:1036D00006F078FF2046FFF77DFE607BFF2801D2D1
:1036E000401C6073C0B20A2804D24FF47A7110FBF8
:1036F00001F001E042F2107080B24FF4FA7100F272
:10370000F310B0FBF1F060832846F8BD28BB000839
:103710007CB5446A0546F4B1A06A0190284600F0E1
:103720000FF900210646204600F002F90020A062B1
:10373000E062206360632064E063A063E084A084AF
:103740006084208456B1072221462846FFF766FD93
:10375000060005D023E06FF00E007CBD00207CBD8C
:10376000042220463621FFF7D7FE019801F079FEAA
:1037700001462046FFF7E9FE2046FFF718FF218BA0
:103780002069F03189B203F05CFA00954323216986
:1037900001AA606806F016FF2046FFF71BFE044BE7
:1037A00028461A46114602F04BFD30467CBD00000B
:1037B00024BB0008F8B5446A05210546204600F000
:1037C000B7F8032221462846FFF728FD06001CD142
:1037D000022220463921FFF79FFE698D2046FFF720
:1037E000D5FE2046FFF7E3FE218B2069F03189B238
:1037F00003F027FA00954323216904F12802606849
:1038000006F0E0FE2046FFF7E5FD607BFF2801D2D1
:10381000401C6073C0B20A2804D24FF4FA6110FB56
:1038200001F001E044F6206080B24FF4FA7100F23A
:10383000F310B0FBF1F060833046F8BD2DE9FC4198
:10384000446A01210646204600F072F80322214610
:103850003046FFF7E3FC070046D10222204639211B
:10386000FFF75AFE718D2046FFF790FE0422204696
:103870003221FFF751FEE06A01F0F3FD01462046D8
:10388000FFF763FE042220463621FFF745FEA06ABB
:1038900001F0E7FD01462046FFF757FE04222046CF
:1038A0003721FFF739FEDFF87C800025204618F825
:1038B0000510FFF741FE6D1CEDB2042DF6D3204636
:1038C000FFF775FE218B2069F03189B203F0B9F959
:1038D00015484323154ACDE900602169606806F068
:1038E00087FE2046FFF776FD607BFF2801D2401C53
:1038F0006073C0B2062802D20121814000E03C2161
:103900004FF6FF7001EB4102C2EBC1124FF4FA71A6
:1039100000EAC20000F2F310B0FBF1F06083384619
:10392000BDE8FC814801002024BB000828BB00083A
:10393000027B8A4203D001730022427342837047A4
:1039400030B1406A20B1007B0A2803D0052801D09D
:10395000002070470120704710B5426A0446117B71
:103960000C290FD006290DD001290FD0082919D014
:10397000032923D1507B022812D22046BDE81040F3
:10398000FFF774BEBDE81040FFF730BD507B05283F
:10399000204603D8BDE81040FFF750BFFFF7B8FE40
:1039A0002046EFE7507B0128204603D8BDE81040B1
:1039B000FFF7C2BBBDE81040FFF753BB10BD0000CE
:1039C00010B5FFF7D3FBBDE81040034900224EF6C7
:1039D000602004F059B80000C139000810B5FFF7A5
:1039E00069FDBDE81040034900224FF4FA7004F06D
:1039F0004BB80000DD390008C26812680A60C06870
:103A0000016070472DE9F04101720027836A0E467C
:103A1000476004464578477073B1002204219847F7
:103A2000A36A4BB10022204611469847A36A1BB1F6
:103A3000002220460221984704F11000804603F03E
:103A4000D1FF18B10021404603F0BEFF04F114007D
:103A5000804603F0C7FF18B10021404603F0B4FFD1
:103A6000012D03D0042D01D0032D1CD1217FC1F3E2
:103A70008000002821F00401217714D1606A0671CA
:103A8000606A05680C35284603F0DAFF67622CB1DE
:103A900094F9080010F10B0F00DB26722846BDE8F0
:103AA000F04103F0C7BFBDE8F0812DE9F84F0600F3
:103AB000904689465CD0B8F80A002A2855D3D8F831
:103AC00004504FF4807A2C4634F80E0F50454CD1F8
:103AD0002079062849D16079042846D160880828D1
:103AE00043D1D4F80E0000907068A16920B18142E2
:103AF00002D101273B4601E000270223694604F179
:103B00000802304600F0A2FAE088504503D0B0F534
:103B1000007F2AD125E01FB3022001F039F9E080AF
:103B2000D4F80E00A0617068C4F80E00A068C4F854
:103B30001200A089E082A0682860A089A880D9F836
:103B40000010A160B9F80400A081D9F80010C5F8F0
:103B500006104146B9F8040068813046B2699047C2
:103B600003E069463046FFF76DFA404603F00EF871
:103B7000BDE8F88F70B50A4D0024064604EB4400FA
:103B800005EBC000017D29B18068B04202D120461A
:103B900000F076F8641CE4B20A2CEFD370BD00008C
:103BA000101100202DE9FC5F0A270546DFF8CC90B4
:103BB00000208B463E4639463C46864601900090A2
:103BC00000EB400A0A2909EBCA031A7D0AD0B2B1F8
:103BD00065B1D5F800C0D3F80480C44506D140B221
:103BE000BDE8FC9F002AF3D141B208E0012A14D0BD
:103BF000022A04D35A8A724501D3964646B2401C23
:103C0000C0B20A28DCD35FEA8B724FF0FF30E7D4F2
:103C10000A2913D015DACCB221E059F83A20002A4B
:103C20005A8A05D0019B9A42E9D344B20192E6E751
:103C3000009B9A42E3D347B20092E0E75FEACB7180
:103C4000CED00A2E01DAF4B206E00A2F01DAFCB275
:103C500002E00A2CC4DAE4B2204600F011F82DB1DB
:103C600004EB4402296809EBC200416004EB440202
:103C7000002109EBC20260B25182B1E710110020AD
:103C800070B50C4D00EB4006002455F8360018B115
:103C900002F07CFF45F8364005EBC6000649047586
:103CA000448284604460D1F80620C2604989018260
:103CB00070BD00001011002018BB00082DE9FC4168
:103CC0000E4615460E210446304602F082FF18B11A
:103CD0006FF00100BDE8FC812868214600F0B8FCC7
:103CE00008B1324B38E02868C0F303110E291ED00A
:103CF000D4E901210A400140914208D080B2A0F5E8
:103D00007E41A93903D0E06868B304F10C05284A64
:103D10002849137803EB430001EBC000077D022F15
:103D200024D32F684068874220D11A462EE0012212
:103D30008DF8002000208DF801005E218DF8021022
:103D400068786B4600F07F008DF80300A8788DF846
:103D50000400E8788DF8050004F12D023146204674
:103D600000F034F9B6E76FF00300B3E75FF000004E
:103D700000EB400301EBC3031F7D022F0BD32F6821
:103D80005B689F4207D1C0B21070024631462046A0
:103D900000F012F89EE7401C40B20A28E8DB3246E9
:103DA0002946204600F036F894E7000018BB0008CA
:103DB00046010020101100202DE9F04188460646FA
:103DC000134802EB420100EBC10404F10C05207D15
:103DD000022813D1608A0327B0F58E7F04D9211DF4
:103DE000304600F0DDF807E0B0F5877F06D3211DEF
:103DF0002A46304600F0DAF800B9277506F12D02A0
:103E00002B4641463046BDE8F04100F0DFB80000E7
:103E1000101100202DE9F84F824614462D308846B7
:103E200000904FF0FF360868514600F011FCD0B901
:103E3000D8F80000C0F303110E2914D0B8F1000F18
:103E400011D080B1012152464046FFF7ABFE07007A
:103E50000BD4DFF8A4B007EB47090BEBC905287DAD
:103E600028B144B10EE06FF00E00BDE8F88FC5F840
:103E700008A0012129754146504600F091F8002C18
:103E80000646F2D0287DD84602280AD31B4805F101
:103E90000C03214607705046009A00F097F806463A
:103EA00027E0012825D12046017B01290ED0018978
:103EB0000022032002F03BFD050018D0214602F04D
:103EC000E5FD58B1284602F061FE10E000680028C8
:103ED000EAD12546204602F0DBFE45B158F839000C
:103EE00008B102F053FE002648F8395001E04FF0C7
:103EF000FF363046B9E700001011002046010020CF
:103F00002DE9F05F1F46904600228946DDF82CB06F
:103F10002A218246032002F00AFD06003DD0756882
:103F20000D9805F10E0400F033FFE0804FF480732C
:103F30003868A060B888A081DBF80010C4F81210BF
:103F4000BBF80400E08208200A990968C4F80E1042
:103F500006210C9A1268A261042223804FF4C163E7
:103F6000608021716271AB81D8F800102960B8F8C7
:103F70000400A880D9F80010C5F806103146B9F839
:103F8000040068815046DAF818209047044630460D
:103F900002F0FCFD2046BDE8F09F4FF0FF30FAE74D
:103FA000014A00F003B8000018BB00087FB5064DB9
:103FB0000124031DCDE90214CDE90035293319464A
:103FC000FFF79EFF04B070BD1EBB000830B44C6804
:103FD0000825A5811D6825609B88A3801368C4F807
:103FE000063092886281826930BC104770B5164DE8
:103FF0005FF0000404EB440005EBC001087DF0B164
:104000004A8A521C92B24A82B2F5967F0AD201289D
:1040100006D003280AD004280AD001280BD00EE0CD
:10402000052A08D32046FFF72BFE08E0042000E015
:104030000220087503E08868091DFFF7B1FF641CC2
:10404000E4B20A2CD6D370BD101100202DE9F04146
:104050000E001F461546044632D0306878B321461C
:1040600000F0F6FA58BB3078C0F303100E2827D0C2
:10407000224639463046FFF795FD00281DDB124ADF
:1040800000EB4001022302EBC100037500238460B2
:104090002E68C660AE880682438252F831605EB1F7
:1040A00042F8313004F12D022B4631462046FFF70D
:1040B0008DFF304602F06AFD0020BDE8F081FFE789
:1040C0006FF00E00F9E700001011002070B50446F3
:1040D00040890D460E283DD9606801788689CA0757
:1040E00014D0012905D01D490622FCF71DF948B15D
:1040F0000CE0417851B980785E2807D1607B40F0B0
:10410000100002E0607B40F008006073082E03D0CE
:10411000B6F5C16F1ED111E095F83300000719D52F
:1041200060890E2816DB6FF00D01204602F051FD6C
:1041300080B92946204600F0A3FA09E095F833003B
:10414000000707D505F12D0122462846FFF7ADFCF3
:10415000002070BD204602F019FDF9E718BB0008E9
:10416000074A5A2110B54261064A8261482280F806
:10417000341080F8352000F067FC002010BD0000EE
:10418000BD3C00080D4C00080B4E04464FF0FF37B5
:104190003946306802F0D8FA0028F9D1204600F0FC
:1041A000D3FC0500F4D02269214690470028F5D0C1
:1041B000284602F0EBFCF1E77C01002090F8330088
:1041C000400701D502A000E006A0FEF78FBC00006A
:1041D0004E455449465F464C41475F4C494E4B5F04
:1041E00055500A004E455449465F464C41475F4C86
:1041F000494E4B5F444F574E0A00000008B5044635
:1042000000200090012108486A46FCF751FF009801
:104210004007204602D502F06EF801E002F05EF899
:10422000642002F099F8EDE7881200202DE9FC41A6
:10423000002506460195009590F83300400742D5C9
:10424000254C606868B3002120464FF48052FDF78A
:1042500087F8FDF7BDF94FF47A7701901E480121E8
:104260006A46FCF725FFFDF7B3F90199401AB842F9
:1042700017D800988006F1D517481F216A46FCF729
:1042800017FF0098C10603D54FF40061E16000E01C
:10429000E560400701D5A5600DE04FF48040A060C7
:1042A00009E0D4E90210C00840EA510082B20A488D
:1042B0000021FDF755F808480021FCF7D5FB06481A
:1042C000FCF740FF02E00448FCF77EFF3046FFF7B2
:1042D00075FFBDE8FC810000881200202DE9F04741
:1042E00000280E4606D08469002C05DA002901D189
:1042F000641E8461BDE8F087204600F0B7F8050031
:10430000F8D0052E4FF0010913D2DFE806F00306BE
:104310000A0D10006889401C01E06889401E688110
:1043200007E0A5F80C9004E00020A88101E0A5F8C2
:104330000E90687C0028DDD0294F3E684CE0716902
:10434000D7F80480E9BBB5F90A100020002910DD78
:10435000B16871B1042C0CD2E21704F0070C04EB25
:10436000527309FA0CF201EBE3010978114200D013
:104370000120A98989B180B9F16871B1042C0CD2EE
:10438000E21704F0070C04EB527309FA0CF201EB8C
:10439000E3010978114200D00120E98979B178B9A7
:1043A000306970B1042C13D2E11704F0070204EB5A
:1043B000517309FA02F100EBE3000078084000B104
:1043C00000E005E006F11800C6F8149003F032FB97
:1043D00079688845B1D13668002EB0D18AE70000EF
:1043E0003001002013B5044801224FF6FF736946DF
:1043F000FDF7AAFD00981CBD1812002010B500287A
:1044000021D0114B0022001F196803E0814203D81C
:104410000A4649680029F9D152B11368841A9C42AE
:1044200004D1006818441060104602E0506000E0BB
:10443000186039B102680B1A934203D10B681A4411
:1044400002604968416010BDB80100204368002245
:1044500042600281002B0274026005D0184609B147
:1044600002F094BB01F02FBC7047000010B5042887
:104470004FF0090407D2064900EB800001EB8000F1
:104480000168002903D1FEF741FB0460002010BD44
:10449000C01000200A46032100F07AB82DE9FE4F33
:1044A0008A463A4942890446042AD1F8088098F895
:1044B00000004FEA00704FEA906762D360680078AE
:1044C00000285ED008285CD1486901F11405C0F3CA
:1044D00003120E2A55D08946096800F0B9F8002861
:1044E0004FD1208908284CD3204600F08DF8F8B928
:1044F0002221204602F06DFB00B3208900223844BF
:1045000081B2022002F013FA06003AD070683A46EF
:104510004146FBF7E5FE7942304602F05AFB20B9EE
:104520002146304602F0B2FA18B1304602F02EFBB6
:1045300027E0204602F02AFB344605E06FF0210117
:10454000204602F046FBE0B966683946204602F094
:1045500040FBB0B9606800212A68FF27C2600A46A4
:10456000D9F81030036101233170718007724181E5
:104570002046CDE900133B462946CDF808A000F0BF
:1045800041F92046BDE8FE4F02F000BB00120020BA
:104590002DE9FF4792468946002206462421012044
:1045A00002F0C5F9050027D06C684FF00008776865
:1045B0001C2284F8009084F801A0A4F80480A4F8D8
:1045C0000680686871680830FBF78AFEF868039017
:1045D00003A800F071F960B1A4F802800122CDF8BF
:1045E0000080FF23CDE901200021284603AA00F026
:1045F00009F9284602F0CAFABDE8FF87EFF3058003
:10460000002800D00120704770B5002405462646DA
:1046100013E06989686801F013F92044A97A020C53
:1046200012FA80F4C90707D0E0B2C6F10101C4F361
:10463000072242EA0024CEB22D68002DE9D126B12E
:10464000E0B2C4F3072141EA0024E04380B270BD28
:10465000421C12D088B191F8332092070BD54A68DA
:10466000824208D089680A4000EA0103934202D1DD
:104670000143491C01D00020704701207047000011
:104680002DE9F05F456806460F4604212878B1EB16
:10469000101F03D0304602F079FAACE000F00F00B2
:1046A0004FF6FF7101EA8008688800F0DCFE0446DE
:1046B0003089A04203D92146304602F0C2FA7189FE
:1046C0004145E7D33089A042E4D34C483C462969B0
:1046D0004FF00109DFF828B182464161E9680161C4
:1046E00094F83300C0070CD0606850B1DAF8142099
:1046F000824204D021461046FFF7AAFF08B174B1E8
:1047000016E0B9F1000F04D0DBF800404FF00009CB
:1047100000E02468BC4200D12468002CE0D1687A13
:10472000112805D105EB08004088B0F5884F33D03B
:10473000DAF8102062B1D14639461046FFF788FFFB
:104740000028A7D199F81000C0F303100E28A1D0BB
:10475000002C9FD0E88830F0C0009BD1CAF80850E8
:10476000C8F10001CAE900472A78D146304612074D
:10477000920EAAF80C2002F02CFA687A012817D0C1
:10478000062810D0112809D0D9F814004F46214628
:10479000FFF75EFF88B11EE03C46D9E73946304658
:1047A00005F014FE1AE03946304603F003FD15E02B
:1047B00039463046FFF772FE10E0387DC0F3031033
:1047C0000E2808D04146304602F006FA0221304653
:1047D0007560FFF75FFE304602F0D8F90021C9F896
:1047E0000010C9F80410C9F80810A9F80C10C9F88D
:1047F0001010C9F814100020BDE8F09F001200202E
:10480000E0000020FEB5DDE90954089E1AB109B1A7
:104810000F6807B9211D0096CDE9015400F002F898
:10482000FEBD00002DE9F84F16001F4688460546DC
:10483000DDE90B9ADDF828B02ED0142102F0C9F979
:1048400018B16FF00100BDE8F88F6C684520277241
:1048500084F8099031682161207084F801B02889BA
:1048600000F096FA124F4FF000096080A4F806900D
:10487000388800F08DFAA080B8F1000F388800F178
:104880000100388005D0D8F80000E060A4F80A9054
:1048900006E008480068F8E768686E46006900901E
:1048A0005046DAF81430324629469847CBE70000E4
:1048B0005001002024BB000870B50446134813E0E3
:1048C00090F83310CA070FD04A070DD543685BB183
:1048D00082682568134005EA02069E4214D08907C3
:1048E00002D4C1688D420FD000680028E8D1084882
:1048F000006840B190F83310CA0704D0490702D5C8
:104900004168002900D1002070BD0000E0000020B7
:10491000E40000202DE9FF4102780C460346694679
:10492000A2F130000A2870D2302A4FF000004FF078
:104930000A0506D113F8012F782A09D0582A07D082
:104940000825A2F13006092E04D800FB056014E00A
:10495000102512E0102D13D1A2F16106052E03D906
:10496000A2F14107052F0BD8192E01D8612600E0CE
:104970004126921B0A3242EA001013F8012FE0E7A9
:104980002E2A0DD09AB1202A11D00C2A0FD00A2A33
:104990000DD00D2A0BD0092A09D00B2A35D106E0FB
:1049A00003AA914231D201C113F8012FB8E76A4638
:1049B000891A012202EBA101052932D2DFE801F0B8
:1049C0002531030C1A00B0F1807F1ED20099FF2917
:1049D0001BD840EA016024E0B0F5803F15D2009971
:1049E000FF2912D80199FF290FD8009A120642EA2E
:1049F000014115E0FF2808D80099FF2905D8019941
:104A0000FF2902D80299FF2903D9002004B0BDE88C
:104A1000F081DDE900321B0643EA024242EA01214D
:104A2000084314B100F0B2F920600120EEE7FFF76F
:104A300027BE08B56946FFF76DFF08B1009808BDAD
:104A40004FF0FF3008BD0000F0B589B0044634A334
:104A500036480025344E00950121D3E900238F0309
:104A60004FF4006C4FF4000ECDE90123031D0660E6
:104A700001AA426183E88210143383E82240058250
:104A8000FCF792F928B994F8330040F0040084F858
:104A90003300274A052327492448FCF7C1F8264A52
:104AA000052326492148FCF781F8062284F82C20AA
:104AB000022184F82D1084F82E5040F2DC5084F846
:104AC0002F50012184F8305084F8315084F832504E
:104AD000608594F8330040F00A0084F8330008A899
:104AE000089501F0F2FD16491422086003A8154943
:104AF000FBF7F6FB03A8214601F066FE0B481E21DA
:104B00006A46FCF7D5FA00981E2140F010020748CB
:104B10000092FCF725FC0548FCF714FB09B0F0BD3A
:104B20000200000000000000008002408812002007
:104B300080440020A02000204021002000200020F0
:104B40007C0100207CBB00082DE9F84F00200446C2
:104B500000902D48FCF7A7F810B10020BDE8F88FB1
:104B60002948818FD0F840900904090C31D00322E4
:104B7000042001F0DCFE009058B3234840F2F45BBF
:104B8000009DD0F8308000276E8913E06B68A4F296
:104B9000F4504242D81909EB0401FBF7A1FBD8F805
:104BA0000C003F1B0024AAF2F4568046D0F808906F
:104BB00007F2F45706EB040ADA45E7D86A6809EB0E
:104BC0000401D0193246FBF78BFB2D683444002DCD
:104BD000D9D10D480022016B05E00B6843F000437A
:104BE0000B60C968521C836B9342F6D80021816325
:104BF000006800F580504269120602D580224261A9
:104C000081600098AAE70000881200202DE9F05F7B
:104C100029484FF0000B0D465C46C66AD6F808A03E
:104C200035E03068002811DB6F894FF000081DE087
:104C30006B68A4F2F45042420AEB040003EB080153
:104C4000FBF74EFBF6683068002802DA6FF00700C9
:104C500024E0D6F808A0A8EB0401ABEB040001F2B5
:104C6000F4580024A9F2F45700F2F45B40F2F45136
:104C700007EB04098945DBD86A680AEB040002EBFC
:104C800008013A46FBF72CFB2D683C44BB44002D41
:104C9000C7D109485946FCF7D9FA002006490968E6
:104CA00001F580514A69920603D520234B61002209
:104CB0004A60BDE8F09F00008812002070B5002413
:104CC000FFF7D4FB05004FF0FF361AD0286838B143
:104CD00001780122B2EB111F01D1012400E0002470
:104CE00001F090F878B14142112904D20949A1EBB1
:104CF0008000046800E005242C7414B1FDF706FF61
:104D00000460304670BD21462846FFF79FFB002017
:104D100070BD0000D4BA0008F8B517460D46FFF77D
:104D2000A5FB04004FF0FF3629D0687810B1102F92
:104D300009D103E0206801F07DF811E0C0B202283B
:104D400001D1A80702D00525257415E068680090F8
:104D5000688800F088FB02462068694601F03EF84A
:104D600078B14142112904D20749A1EB80000568BE
:104D700000E00525257415B1FDF7C8FE0560304635
:104D8000F8BD00202074F8BDD4BA000800BA7047FE
:104D900040BA704710B502F0E9FD00F053FE00F094
:104DA00055FF01F03FFA05F00FFB03F001FABDE8F3
:104DB000104002F097BE70B5044600686FF00A021A
:104DC00041784368DBB103780125B5EB131F16D199
:104DD000237A032B01D0022911D003290FD00129F6
:104DE0000FD0D90701D001F035F8216804204870B0
:104DF000206844622068BDE8704000F011B822715C
:104E000001E0FB21217128B190F90810914201DBEA
:104E1000217901722068BDE870400C3002F00ABEB2
:104E20002DE9F0470446406AD4F80480007A03284C
:104E300000F0010900F002070FD0B9F1000F07D010
:104E400098F81800052808D0062806D0082804D0AD
:104E50004FB198F81E00C00605D501264046002136
:104E600002F088FF00E0002698F8180001281DD005
:104E7000B9F1000F07D00021404604F0B5FA002137
:104E8000404602F0E4FE1FB10021404604F005FC5C
:104E900096B100224046114603F0A0FE0021404694
:104EA00003F03BF9404602F067FF0AE0002140466C
:104EB00002F0CDFE002EF5D13A464946404604F0B8
:104EC000EEFB050024D0681C22D1207F800702D58C
:104ED0006FF006051CE0606A407AA0B11FB123495B
:104EE000404604F0DAFB22490122404603F076FEF8
:104EF0002049404603F011F92146404602F03AFFAE
:104F00002846BDE8F0871EB1404602F09DFE002510
:104F1000616A00200A680D71606202F10C0860701D
:104F2000BDB936B1A36A60601BB1002220460421DE
:104F30009847B9F1000F05D0A36A1BB100222046A3
:104F4000114698472FB1A36A1BB1002220460221C7
:104F500098472CB194F9080010F10B0F00DB257273
:104F6000404602F067FD0020CBE700000178000812
:104F7000516D0008053A000810B504460068436802
:104F800043B1017801F0F00110290CD0202903D0A1
:104F9000FA2006E0F22004E0A2891846A16805F094
:104FA000E1F9207121E04178032902D019B1F620FE
:104FB000F7E7F720F5E702F04DFC2068A289164BD1
:104FC000A168406802F082FF207170B92068032157
:104FD000027F4170C2F340000028206814D0FB21FA
:104FE000027F42F0040202772171206830B190F90B
:104FF000081011F10B0F01DB217901722068BDE867
:1050000010400C3002F016BD017F21F00401017741
:105010002068446210BD00001D50000870B50400F7
:105020004FF000050CD0606A18B10271606A056823
:105030000C3520780121B1EB101F07D11AB105E022
:105040006FF0050070BD204602F004FC217F0020B7
:1050500094F9082041F3800621F004012177761CA1
:10506000606212F10B0F607000DB2072A36A1BB14B
:10507000002220460221984716B1284602F0DAFCA9
:10508000002070BD70B501680446487848B1022818
:1050900007D0032802D1087F400702D4FB202071EB
:1050A00021E000250846257100F0D4FE2068416803
:1050B00069B1027802F0F002102A29D0202A04D126
:1050C000CD612068406805F049FA20684560206895
:1050D000836A43B10022114698472068836A13B15E
:1050E00000220221984720680C3002F0A9FC002819
:1050F00019D0206830B190F9081011F10B0F01DBC5
:10510000217901722068BDE870400C3002F092BC39
:105110000422427003212172206844622068BDE8A5
:105120007040FFF77DBE70BD10B5044600680221D7
:105130000278B1EB121F04D1406805F03DF9002060
:1051400000E0FA202071206830B190F9081011F1C8
:105150000B0F01DB217901722068BDE810400C3093
:1051600002F068BC01686FF00A024968C9B1037CAB
:105170000BB1096800E0496883681960002101717A
:1051800001680B7803F0F003102B1BD0202B0DD1FE
:10519000037C496813B1498AC36806E00B7C5B074E
:1051A00001D4027102E0898A18E01980016829B1EE
:1051B00091F90830934201DB02790A7200680C30E1
:1051C00002F038BC037C13B14968498B06E04B6898
:1051D000197E0029E5D00129E3D0998BC368E4E763
:1051E00010B50446002020712068406810B92046A0
:1051F00001F054FD206830B190F9081011F10B0F47
:1052000001DB217901722068BDE810400C3002F00A
:1052100011BC2DE9F0410446002020712168486846
:10522000D8B109780122B2EB111F16D1017E0129F4
:1052300007D0A56817044FF6FF78BD4205D3464650
:1052400004E0417F491E417707E0AEB22068314655
:10525000406804F0DDF8AD1BEFD1206830B190F963
:10526000081011F10B0F01DB217901722068BDE8F4
:10527000F0410C3002F0DEBB70B5044600686FF000
:105280000A0590F90810A94201DA217112E025718E
:1052900046687EB1007800F0F00020280AD1A068AE
:1052A0008168A9B100F1080283890168304605F0E0
:1052B00071F92071206828B190F90810A94201DB2A
:1052C000217901722068BDE870400C3002F0B2BB59
:1052D0000168304605F05AF9EBE730B401686FF029
:1052E0000A0391F908209A4207DB0C780122B2EBFD
:1052F000141F1DD14C7814B1FB2202710CE04C68D4
:105300004CB14A7000230168486201680B62006872
:1053100030BC00F00FB8037129B191F908209A420E
:1053200001DB02790A72006830BC0C3002F082BBEB
:10533000FA22E2E72DE9F047017F0446406A4FF088
:1053400000098A07037C01D4590701D5012700E031
:105350000027216AD0E90225681AB0F5803F114480
:1053600004D343F002034FF6FF7600E086B265688F
:105370006FF00A0A4FF00008B5F86600B04207D295
:1053800006461FB126B96FF006050AE043F0020396
:105390003246284604F062FB050001D0681C3DD16E
:1053A00077B1606AC068B0420AD9A36A1BB1032111
:1053B000324620469847207F40F01000207710E0CA
:1053C000606840F66931B0F866208A4203D9B0F8C7
:1053D0006800052805D3A36A1BB103213246204685
:1053E000984715B1681C18D018E0206A3044206234
:1053F000616ACA68904200D027B1C8604FF00109C5
:10540000C4F82080606803F0B1F9504524DB011D29
:1054100022D0B9F1000F04D114E0B7B1616AC1F82C
:105420000C80626A10681571C4F8248000F10C00C9
:1054300084F8018024B194F90810514500DB2572ED
:1054400002F0F8FA0020BDE8F087606803F08EF9FA
:10545000504501DB011DF5D1626A0546C2F80C809A
:10546000DFE700BA704740BA70471CB500230093CD
:10547000019300F001F81CBD2DE9FF4F89B04FF0FA
:10548000000B9A4617465E46D846CDF81CB0FEF78C
:10549000EDFF040044D0606808B1079049E05FEA7E
:1054A0000A7003D42068007F80070DD5B4F90A0084
:1054B000002809DC002E01DD2068D1E00B252574D1
:1054C000FDF724FB05602BE0206801210278B1EB99
:1054D000121F07A902D100F00FFE01E000F068FDE5
:1054E000050024D0002E0BDD2068314600F010FEB0
:1054F0000E3504D1002220681146FEF7EFFEB2E01F
:105500006842112804D25A48A0EB8500066800E0E2
:105510000526267416B1FDF7F9FA06600E3504D09B
:105520004FF0FF300DB0BDE8F08F0020FAE707988C
:105530006060206801780120B0EB111F079800D04F
:105540000068009023890089C01A80B281464F45C7
:1055500001D9054600E0BDB20A982A468119009893
:1055600001F0E1FA206801212E440278B1EB121F0C
:105570000CD17F1B0AD00099497BC90706D1B4F929
:105580000A10002902DD5FEACA713AD016994FF07D
:10559000010899B3179989B3D2B20121B1EB121F57
:1055A00006D1002308A9059106AA00F0B9FC05E080
:1055B0000798818908300590ADF8181010208DF8F3
:1055C000000002210490BDF818008DF80110FFF7CB
:1055D000DFFBADF8020005990968CDE9011BCDF8A4
:1055E0000CB017980068102802D917990498086021
:1055F0006946179802681698FAF772FE5FEACA7051
:105600001FD1216801200A78B0EB121F09D1A9EB44
:105610000502002A05DD2089079961602844208160
:105620000FE0C4F804B05D46A4F808B00978B0EB08
:10563000111F079802D101F0A9FA01E000F043FB25
:105640000795B8F1000F3FF426AF002E0BDD206860
:1056500001210278B1EB121F05D15FEACA7102D1B4
:10566000314600F055FD304684F810B05AE700008E
:10567000D4BA00082DE9FE431D46904689460646E9
:10568000FEF7F4FE04004FF0FF3730D0226801210E
:1056900000201278B1EB121F09D02B464246494632
:1056A00000900190304600F029F8BDE8FE83022307
:1056B0000290042203EAD5035B1C02EA550213435D
:1056C000424602A900912068494600F04BFD06467B
:1056D0007042112804D20848A0EB8600056800E05B
:1056E0000525257415B1FDF711FA05600EB1384690
:1056F000DBE70298D9E70000D4BA00082DE9FF5F84
:10570000994690468B468246DDE90E57FEF7AEFE7F
:1057100004004FF0FF364CD0216801200978B0EB2F
:10572000111F08D14B46424659465046FFF7A2FF8B
:1057300004B0BDE8F09F1FFA88F855EA07000CD0C6
:10574000102F04D16878022801D1A80705D00525BB
:105750002574FDF7DBF905602BE000210191009134
:105760002DB1686802906888FFF77DFE01E0002097
:10577000029142465946ADF80C00684600F0BFFA67
:10578000050004D12068694600F0DAFC0546684649
:1057900000F0AAFA6842112804D20848A0EB85005C
:1057A000076800E00527277417B1FDF7AFF9076018
:1057B0000DB13046BCE74046BAE70000D4BA000855
:1057C00070B501294FF0FF3517D0022909D0032900
:1057D00003D0FDF79BF905212CE04020D1B2174AF8
:1057E00004E0882A07D02020144A002100F0B0FBF2
:1057F000040015D00CE02120F6E7104A002110200B
:1058000000F0A6FB04000BD0207F40F008002077BA
:1058100000212046FDF7EEFA411C05D0A06170BDC5
:10582000FDF774F9692105E0204600F0EBFAFDF779
:105830006DF917210160284670BD0000DD420008A7
:1058400018B5002210F00103ADF800200CD000299B
:105850000ADD10F8014B491E8DF8014004E000BF3D
:1058600030F8024B891E22440129F9DC002902DDAF
:1058700000788DF80000BDF8000010444FEA104198
:1058800011FA80F04FEA104111FA80F023B1C1B251
:10589000C0F3072040EA012080B218BD0023FFF7C3
:1058A000E9BE0000F0B599B0BFF34F8FBFF36F8F23
:1058B0003248002430490460086840F40030086031
:1058C000BFF34F8FBFF36F8F2B4870300460BFF36F
:1058D0004F8F001F294D43F6FF7610350068C0F347
:1058E0004E32C0F3C90306EA4217184647EA807CE5
:1058F000C5F800C0401EF9D2521EF4D2BFF34F8F3C
:10590000086840F480300860BFF34F8FBFF36F8F9B
:10591000FBF76CFE0120079002250A940104089110
:10592000820509204FF4D876CDE90D52CDE911500A
:105930000823CDE90F3607A8FCF71AF8FBF7BAFEE3
:10594000EA0215944FF4A0510F20CDE91612CDE9CB
:105950001305072113A8FBF7E3FE0949142202A847
:10596000FAF7BEFC002102A800F02EFF00F0FBFCBD
:1059700019B00020F0BD000014ED00E050EF00E091
:1059800048BB0008842801464FF0000000D0C81C26
:1059900070470000F0B50B30154D20F007010024D2
:1059A000144A0FE003688B420BD38B4205D95E1A71
:1059B00043184768C3E9006700E04368136002C00A
:1059C00004E0021D10680028ECD12046002802D116
:1059D000286808B10020F0BD064A07481060074A51
:1059E000121A22F00702C0E9002401202860D7E73C
:1059F000BC010020B8010020AC130020A815002035
:105A000070B504001BD00E4D2868844217D3686817
:105A1000844214D2002105F10C0001F086FFA4F1AC
:105A2000080000210171A968884200D2A86001F035
:105A300065F90348BDE870400C3001F0FBBF70BD54
:105A4000740000200C484FF420530C4A20F003004F
:105A500030B40024106000F52051038001254480FB
:105A6000047151600D710B804B802946906002F1EA
:105A70000C0030BC01F0BEBF478203207400002040
:105A80002DE9F04100280DD0C01C4FF6FC7100EA52
:105A900001040C2C4FF4205601D20C2404E0B44233
:105AA00002D90020BDE8F0812948002101F03DFF26
:105AB000274BC4F520570C3B9A681968501A80B2DE
:105AC00040E00D1895F804C0BCF1000F39D1B5F8CD
:105AD00000C0ACEB000CACF1080CA44531D32F880E
